:100000000C942A000C9434000C9434000C943400AA
:100010000C9434000C9434000C9434000C94340090
:100020000C9434000C9434000C9434000C94340080
:100030000C9434000C9434000C9434000C94340070
:100040000C9434000C9434000C9434000C94340060
:100050000C94340011241FBECFE5D8E0DEBFCDBF25
:100060000E9436000C9461000C940000DF93CF9343
:10007000CDB7DEB7E1E3F0E01082EAE3F0E08FEF26
:100080008083A2E3B0E0E2E3F0E0808181608C93C2
:10009000E0E3F0E08081882F90E08170907000971D
:1000A00041F4ABE3B0E0EBE3F0E0808181608C935E
:1000B000EFCFABE3B0E0EBE3F0E080818E7F8C9399
:0600C000E7CFF894FFCF2A
:00000001FF
